{
  "address": "0x5FbDB2315678afecb367f032d93F642f64180aa3",
  "abi": [
    {
      "inputs": [
        {
          "internalType": "address",
          "name": "owner",
          "type": "address"
        },
        {
          "internalType": "uint256",
          "name": "minimumWager",
          "type": "uint256"
        },
        {
          "internalType": "uint256",
          "name": "feePercentage",
          "type": "uint256"
        }
      ],
      "stateMutability": "nonpayable",
      "type": "constructor"
    },
    {
      "inputs": [],
      "name": "Flippy_PlayerAlreadyInGame",
      "type": "error"
    },
    {
      "inputs": [],
      "name": "Flippy__InsufficientContractFunds",
      "type": "error"
    },
    {
      "inputs": [],
      "name": "Flippy__InsufficientFundsToSatisfyWithdrawal",
      "type": "error"
    },
    {
      "inputs": [],
      "name": "Flippy__InsufficientWager",
      "type": "error"
    },
    {
      "inputs": [],
      "name": "Flippy__NotOwner",
      "type": "error"
    },
    {
      "inputs": [],
      "name": "Flippy__OwnerCouldNotWithdraw",
      "type": "error"
    },
    {
      "inputs": [],
      "name": "Flippy__TransferFailed",
      "type": "error"
    },
    {
      "anonymous": false,
      "inputs": [
        {
          "indexed": true,
          "internalType": "address",
          "name": "player",
          "type": "address"
        },
        {
          "indexed": false,
          "internalType": "uint256",
          "name": "wager",
          "type": "uint256"
        },
        {
          "indexed": false,
          "internalType": "enum Flippy.CoinFace",
          "name": "faceSelected",
          "type": "uint8"
        },
        {
          "indexed": false,
          "internalType": "enum Flippy.CoinFace",
          "name": "faceFlipped",
          "type": "uint8"
        },
        {
          "indexed": false,
          "internalType": "uint256",
          "name": "prize",
          "type": "uint256"
        }
      ],
      "name": "CoinFlipped",
      "type": "event"
    },
    {
      "anonymous": false,
      "inputs": [
        {
          "indexed": false,
          "internalType": "address",
          "name": "fromAddress",
          "type": "address"
        },
        {
          "indexed": false,
          "internalType": "uint256",
          "name": "amount",
          "type": "uint256"
        }
      ],
      "name": "Funded",
      "type": "event"
    },
    {
      "anonymous": false,
      "inputs": [
        {
          "indexed": false,
          "internalType": "uint256",
          "name": "amount",
          "type": "uint256"
        }
      ],
      "name": "Withdrew",
      "type": "event"
    },
    {
      "stateMutability": "payable",
      "type": "fallback"
    },
    {
      "inputs": [
        {
          "internalType": "enum Flippy.CoinFace",
          "name": "playerCoinFaceSelection",
          "type": "uint8"
        }
      ],
      "name": "flipCoin",
      "outputs": [],
      "stateMutability": "payable",
      "type": "function"
    },
    {
      "inputs": [],
      "name": "fund",
      "outputs": [],
      "stateMutability": "payable",
      "type": "function"
    },
    {
      "inputs": [],
      "name": "getFlipResult",
      "outputs": [
        {
          "internalType": "enum Flippy.CoinFace",
          "name": "",
          "type": "uint8"
        }
      ],
      "stateMutability": "pure",
      "type": "function"
    },
    {
      "inputs": [
        {
          "internalType": "uint256",
          "name": "index",
          "type": "uint256"
        }
      ],
      "name": "getGame",
      "outputs": [
        {
          "internalType": "address",
          "name": "player",
          "type": "address"
        },
        {
          "internalType": "uint256",
          "name": "wager",
          "type": "uint256"
        },
        {
          "internalType": "enum Flippy.CoinFace",
          "name": "faceSelected",
          "type": "uint8"
        },
        {
          "internalType": "enum Flippy.CoinFace",
          "name": "faceFlipped",
          "type": "uint8"
        },
        {
          "internalType": "uint256",
          "name": "prize",
          "type": "uint256"
        }
      ],
      "stateMutability": "view",
      "type": "function"
    },
    {
      "inputs": [],
      "name": "getGameCount",
      "outputs": [
        {
          "internalType": "uint256",
          "name": "",
          "type": "uint256"
        }
      ],
      "stateMutability": "view",
      "type": "function"
    },
    {
      "inputs": [],
      "name": "getMinimumWager",
      "outputs": [
        {
          "internalType": "uint256",
          "name": "",
          "type": "uint256"
        }
      ],
      "stateMutability": "view",
      "type": "function"
    },
    {
      "inputs": [
        {
          "internalType": "address",
          "name": "playerAddress",
          "type": "address"
        }
      ],
      "name": "isAddressInBalances",
      "outputs": [
        {
          "internalType": "bool",
          "name": "",
          "type": "bool"
        }
      ],
      "stateMutability": "view",
      "type": "function"
    },
    {
      "inputs": [
        {
          "internalType": "uint256",
          "name": "",
          "type": "uint256"
        }
      ],
      "name": "s_games",
      "outputs": [
        {
          "internalType": "address",
          "name": "player",
          "type": "address"
        },
        {
          "internalType": "uint256",
          "name": "wager",
          "type": "uint256"
        },
        {
          "internalType": "enum Flippy.CoinFace",
          "name": "faceSelected",
          "type": "uint8"
        },
        {
          "internalType": "enum Flippy.CoinFace",
          "name": "faceFlipped",
          "type": "uint8"
        },
        {
          "internalType": "uint256",
          "name": "prize",
          "type": "uint256"
        }
      ],
      "stateMutability": "view",
      "type": "function"
    },
    {
      "inputs": [
        {
          "internalType": "uint256",
          "name": "amount",
          "type": "uint256"
        }
      ],
      "name": "withdraw",
      "outputs": [],
      "stateMutability": "payable",
      "type": "function"
    },
    {
      "inputs": [],
      "name": "withdrawAll",
      "outputs": [],
      "stateMutability": "payable",
      "type": "function"
    },
    {
      "stateMutability": "payable",
      "type": "receive"
    }
  ],
  "transactionHash": "0x7f7edfd3efbe8b23a78aad66c9fb64f658e06e6234e40ef8ddec88593ef97b28",
  "args": [
    "0xf39Fd6e51aad88F6F4ce6aB8827279cffFb92266",
    "100000000000000000",
    "1"
  ],
  "numDeployments": 1,
  "solcInputHash": "4514726b4e87eaeada60fcc76b3b8b78",
  "bytecode": "0x60e06040523480156200001157600080fd5b506040516200146a3803806200146a833981810160405281019062000037919062000129565b8273ffffffffffffffffffffffffffffffffffffffff1660a08173ffffffffffffffffffffffffffffffffffffffff168152505081608081815250508060c0818152505050505062000185565b600080fd5b600073ffffffffffffffffffffffffffffffffffffffff82169050919050565b6000620000b68262000089565b9050919050565b620000c881620000a9565b8114620000d457600080fd5b50565b600081519050620000e881620000bd565b92915050565b6000819050919050565b6200010381620000ee565b81146200010f57600080fd5b50565b6000815190506200012381620000f8565b92915050565b60008060006060848603121562000145576200014462000084565b5b60006200015586828701620000d7565b9350506020620001688682870162000112565b92505060406200017b8682870162000112565b9150509250925092565b60805160a05160c0516112aa620001c060003960005050600081816102770152610a7501526000818161045f0152610dd901526112aa6000f3fe6080604052600436106100955760003560e01c8063b60d428811610059578063b60d42881461015c578063bcd480a514610166578063e07c73e7146101a7578063e87c0ee6146101e4578063f48409e91461020f576100a4565b80632e1a7d4d146100ae57806350fa12c7146100ca5780636afa82ea146100f5578063853828b614610111578063a2f77bcc1461011b576100a4565b366100a4576100a261023a565b005b6100ac61023a565b005b6100c860048036038101906100c39190610e38565b610275565b005b3480156100d657600080fd5b506100df610412565b6040516100ec9190610edc565b60405180910390f35b61010f600480360381019061010a9190610f1c565b610417565b005b610119610a73565b005b34801561012757600080fd5b50610142600480360381019061013d9190610e38565b610bdb565b604051610153959493929190610f99565b60405180910390f35b61016461023a565b005b34801561017257600080fd5b5061018d60048036038101906101889190610e38565b610ced565b60405161019e959493929190610f99565b60405180910390f35b3480156101b357600080fd5b506101ce60048036038101906101c99190611018565b610d6d565b6040516101db9190611060565b60405180910390f35b3480156101f057600080fd5b506101f9610dc9565b604051610206919061107b565b60405180910390f35b34801561021b57600080fd5b50610224610dd5565b604051610231919061107b565b60405180910390f35b7f5af8184bef8e4b45eb9f6ed7734d04da38ced226495548f46e0c8ff8d7d9a524333460405161026b929190611096565b60405180910390a1565b7f000000000000000000000000000000000000000000000000000000000000000073ffffffffffffffffffffffffffffffffffffffff163373ffffffffffffffffffffffffffffffffffffffff16146102fa576040517f77cd32d100000000000000000000000000000000000000000000000000000000815260040160405180910390fd5b47811115610334576040517f0b407c6f00000000000000000000000000000000000000000000000000000000815260040160405180910390fd5b60003373ffffffffffffffffffffffffffffffffffffffff168260405161035a906110f0565b60006040518083038185875af1925050503d8060008114610397576040519150601f19603f3d011682016040523d82523d6000602084013e61039c565b606091505b50509050806103d7576040517f6eaedde600000000000000000000000000000000000000000000000000000000815260040160405180910390fd5b7fb6b476da71cea8275cac6b1720c04966afaff5e637472cedb6cbd32c43a2325182604051610406919061107b565b60405180910390a15050565b600090565b476002346104259190611134565b111561045d576040517fa01e60eb00000000000000000000000000000000000000000000000000000000815260040160405180910390fd5b7f00000000000000000000000000000000000000000000000000000000000000003410156104b7576040517fb315dd1700000000000000000000000000000000000000000000000000000000815260040160405180910390fd5b6104c033610d6d565b156104f7576040517fab07e46400000000000000000000000000000000000000000000000000000000815260040160405180910390fd5b6000339050600034905082600260008473ffffffffffffffffffffffffffffffffffffffff1673ffffffffffffffffffffffffffffffffffffffff16815260200190815260200160002060006101000a81548160ff0219169083600181111561056357610562610e65565b5b021790555080600160008473ffffffffffffffffffffffffffffffffffffffff1673ffffffffffffffffffffffffffffffffffffffff1681526020019081526020016000208190555060006105b6610412565b90508360018111156105cb576105ca610e65565b5b8160018111156105de576105dd610e65565b5b0361083b5760006002836105f29190611134565b905060008473ffffffffffffffffffffffffffffffffffffffff168260405161061a906110f0565b60006040518083038185875af1925050503d8060008114610657576040519150601f19603f3d011682016040523d82523d6000602084013e61065c565b606091505b5050905080610697576040517fd7d1d7df00000000000000000000000000000000000000000000000000000000815260040160405180910390fd5b8473ffffffffffffffffffffffffffffffffffffffff167f1070a358267b3c26271e1f9b8e8c4d095432b7e032a37c4b59f45685c7e36b8e858886866040516106e39493929190611176565b60405180910390a260006040518060a001604052808773ffffffffffffffffffffffffffffffffffffffff16815260200186815260200188600181111561072d5761072c610e65565b5b815260200185600181111561074557610744610e65565b5b815260200184815250908060018154018082558091505060019003906000526020600020906004020160009091909190915060008201518160000160006101000a81548173ffffffffffffffffffffffffffffffffffffffff021916908373ffffffffffffffffffffffffffffffffffffffff1602179055506020820151816001015560408201518160020160006101000a81548160ff021916908360018111156107f3576107f2610e65565b5b021790555060608201518160020160016101000a81548160ff0219169083600181111561082357610822610e65565b5b021790555060808201518160030155505050506109db565b8273ffffffffffffffffffffffffffffffffffffffff167f1070a358267b3c26271e1f9b8e8c4d095432b7e032a37c4b59f45685c7e36b8e83868460006040516108889493929190611200565b60405180910390a260006040518060a001604052808573ffffffffffffffffffffffffffffffffffffffff1681526020018481526020018660018111156108d2576108d1610e65565b5b81526020018360018111156108ea576108e9610e65565b5b81526020016000815250908060018154018082558091505060019003906000526020600020906004020160009091909190915060008201518160000160006101000a81548173ffffffffffffffffffffffffffffffffffffffff021916908373ffffffffffffffffffffffffffffffffffffffff1602179055506020820151816001015560408201518160020160006101000a81548160ff0219169083600181111561099957610998610e65565b5b021790555060608201518160020160016101000a81548160ff021916908360018111156109c9576109c8610e65565b5b02179055506080820151816003015550505b600160008473ffffffffffffffffffffffffffffffffffffffff1673ffffffffffffffffffffffffffffffffffffffff16815260200190815260200160002060009055600260008473ffffffffffffffffffffffffffffffffffffffff1673ffffffffffffffffffffffffffffffffffffffff16815260200190815260200160002060006101000a81549060ff021916905550505050565b7f000000000000000000000000000000000000000000000000000000000000000073ffffffffffffffffffffffffffffffffffffffff163373ffffffffffffffffffffffffffffffffffffffff1614610af8576040517f77cd32d100000000000000000000000000000000000000000000000000000000815260040160405180910390fd5b600047905060003373ffffffffffffffffffffffffffffffffffffffff1682604051610b23906110f0565b60006040518083038185875af1925050503d8060008114610b60576040519150601f19603f3d011682016040523d82523d6000602084013e610b65565b606091505b5050905080610ba0576040517f6eaedde600000000000000000000000000000000000000000000000000000000815260040160405180910390fd5b7fb6b476da71cea8275cac6b1720c04966afaff5e637472cedb6cbd32c43a2325182604051610bcf919061107b565b60405180910390a15050565b6000806000806000808681548110610bf657610bf5611245565b5b906000526020600020906004020160000160009054906101000a900473ffffffffffffffffffffffffffffffffffffffff1660008781548110610c3c57610c3b611245565b5b90600052602060002090600402016001015460008881548110610c6257610c61611245565b5b906000526020600020906004020160020160009054906101000a900460ff1660008981548110610c9557610c94611245565b5b906000526020600020906004020160020160019054906101000a900460ff1660008a81548110610cc857610cc7611245565b5b9060005260206000209060040201600301549450945094509450945091939590929450565b60008181548110610cfd57600080fd5b90600052602060002090600402016000915090508060000160009054906101000a900473ffffffffffffffffffffffffffffffffffffffff16908060010154908060020160009054906101000a900460ff16908060020160019054906101000a900460ff16908060030154905085565b600080600160008473ffffffffffffffffffffffffffffffffffffffff1673ffffffffffffffffffffffffffffffffffffffff168152602001908152602001600020541115610dbf5760019050610dc4565b600090505b919050565b60008080549050905090565b60007f0000000000000000000000000000000000000000000000000000000000000000905090565b600080fd5b6000819050919050565b610e1581610e02565b8114610e2057600080fd5b50565b600081359050610e3281610e0c565b92915050565b600060208284031215610e4e57610e4d610dfd565b5b6000610e5c84828501610e23565b91505092915050565b7f4e487b7100000000000000000000000000000000000000000000000000000000600052602160045260246000fd5b60028110610ea557610ea4610e65565b5b50565b6000819050610eb682610e94565b919050565b6000610ec682610ea8565b9050919050565b610ed681610ebb565b82525050565b6000602082019050610ef16000830184610ecd565b92915050565b60028110610f0457600080fd5b50565b600081359050610f1681610ef7565b92915050565b600060208284031215610f3257610f31610dfd565b5b6000610f4084828501610f07565b91505092915050565b600073ffffffffffffffffffffffffffffffffffffffff82169050919050565b6000610f7482610f49565b9050919050565b610f8481610f69565b82525050565b610f9381610e02565b82525050565b600060a082019050610fae6000830188610f7b565b610fbb6020830187610f8a565b610fc86040830186610ecd565b610fd56060830185610ecd565b610fe26080830184610f8a565b9695505050505050565b610ff581610f69565b811461100057600080fd5b50565b60008135905061101281610fec565b92915050565b60006020828403121561102e5761102d610dfd565b5b600061103c84828501611003565b91505092915050565b60008115159050919050565b61105a81611045565b82525050565b60006020820190506110756000830184611051565b92915050565b60006020820190506110906000830184610f8a565b92915050565b60006040820190506110ab6000830185610f7b565b6110b86020830184610f8a565b9392505050565b600081905092915050565b50565b60006110da6000836110bf565b91506110e5826110ca565b600082019050919050565b60006110fb826110cd565b9150819050919050565b7f4e487b7100000000000000000000000000000000000000000000000000000000600052601160045260246000fd5b600061113f82610e02565b915061114a83610e02565b925082820261115881610e02565b9150828204841483151761116f5761116e611105565b5b5092915050565b600060808201905061118b6000830187610f8a565b6111986020830186610ecd565b6111a56040830185610ecd565b6111b26060830184610f8a565b95945050505050565b6000819050919050565b6000819050919050565b60006111ea6111e56111e0846111bb565b6111c5565b610e02565b9050919050565b6111fa816111cf565b82525050565b60006080820190506112156000830187610f8a565b6112226020830186610ecd565b61122f6040830185610ecd565b61123c60608301846111f1565b95945050505050565b7f4e487b7100000000000000000000000000000000000000000000000000000000600052603260045260246000fdfea2646970667358221220757d7aea45ca34317813e0d30bd965bf98908c8c434fedc9347edfef214d6bc364736f6c63430008110033",
  "devdoc": {
    "kind": "dev",
    "methods": {
      "isAddressInBalances(address)": {
        "details": "Check whether a player currently exists in the list of active balances"
      }
    },
    "version": 1
  },
  "userdoc": {
    "kind": "user",
    "methods": {},
    "version": 1
  },
  "storageLayout": {
    "storage": [
      {
        "astId": 40,
        "contract": "contracts/Flippy.sol:Flippy",
        "label": "s_games",
        "offset": 0,
        "slot": "0",
        "type": "t_array(t_struct(Game)32_storage)dyn_storage"
      },
      {
        "astId": 46,
        "contract": "contracts/Flippy.sol:Flippy",
        "label": "s_playersToBalances",
        "offset": 0,
        "slot": "1",
        "type": "t_mapping(t_address,t_uint256)"
      },
      {
        "astId": 51,
        "contract": "contracts/Flippy.sol:Flippy",
        "label": "s_playersToCoinFaceSelection",
        "offset": 0,
        "slot": "2",
        "type": "t_mapping(t_address,t_enum(CoinFace)19)"
      }
    ],
    "types": {
      "t_address": {
        "encoding": "inplace",
        "label": "address",
        "numberOfBytes": "20"
      },
      "t_array(t_struct(Game)32_storage)dyn_storage": {
        "base": "t_struct(Game)32_storage",
        "encoding": "dynamic_array",
        "label": "struct Flippy.Game[]",
        "numberOfBytes": "32"
      },
      "t_enum(CoinFace)19": {
        "encoding": "inplace",
        "label": "enum Flippy.CoinFace",
        "numberOfBytes": "1"
      },
      "t_mapping(t_address,t_enum(CoinFace)19)": {
        "encoding": "mapping",
        "key": "t_address",
        "label": "mapping(address => enum Flippy.CoinFace)",
        "numberOfBytes": "32",
        "value": "t_enum(CoinFace)19"
      },
      "t_mapping(t_address,t_uint256)": {
        "encoding": "mapping",
        "key": "t_address",
        "label": "mapping(address => uint256)",
        "numberOfBytes": "32",
        "value": "t_uint256"
      },
      "t_struct(Game)32_storage": {
        "encoding": "inplace",
        "label": "struct Flippy.Game",
        "members": [
          {
            "astId": 21,
            "contract": "contracts/Flippy.sol:Flippy",
            "label": "player",
            "offset": 0,
            "slot": "0",
            "type": "t_address"
          },
          {
            "astId": 23,
            "contract": "contracts/Flippy.sol:Flippy",
            "label": "wager",
            "offset": 0,
            "slot": "1",
            "type": "t_uint256"
          },
          {
            "astId": 26,
            "contract": "contracts/Flippy.sol:Flippy",
            "label": "faceSelected",
            "offset": 0,
            "slot": "2",
            "type": "t_enum(CoinFace)19"
          },
          {
            "astId": 29,
            "contract": "contracts/Flippy.sol:Flippy",
            "label": "faceFlipped",
            "offset": 1,
            "slot": "2",
            "type": "t_enum(CoinFace)19"
          },
          {
            "astId": 31,
            "contract": "contracts/Flippy.sol:Flippy",
            "label": "prize",
            "offset": 0,
            "slot": "3",
            "type": "t_uint256"
          }
        ],
        "numberOfBytes": "128"
      },
      "t_uint256": {
        "encoding": "inplace",
        "label": "uint256",
        "numberOfBytes": "32"
      }
    }
  }
}